:100000000C9435000C945D000C945D000C945D0024
:100010000C945D000C945D000C945D000C945D00EC
:100020000C945D000C945D000C945D000C945D00DC
:100030000C945D000C945D000C945D000C945D00CC
:100040000C94A0000C945D000C948F010C94E101C1
:100050000C945D000C945D000C945D000C945D00AC
:100060000C945D000C945D00500311241FBECFEF73
:10007000D8E0DEBFCDBF11E0A0E0B1E0EEE7FAE0EE
:1000800002C005900D92A431B107D9F711E0A4E1A7
:10009000B1E001C01D92A93CB107E1F710E0CAE64A
:1000A000D0E004C02297FE010E943905C836D1076E
:1000B000C9F70E947D010C943D050C9400008091CD
:1000C00000010E947E00BC019093150180931401F1
:1000D00087EA91E04AE050E00E94B00462E070E0FC
:1000E00080E090E00E94E800089587EA91E040E80F
:1000F00055E260E070E00E941C020895982F8E3057
:1001000008F09E509770809102018295880F880FA9
:10011000807C892B80937C0080917A00806480931E
:100120007A0080917A0086FDFCCF20917800409182
:100130007900942F80E030E0282B392BC9010895F5
:100140001F920F920FB60F9211242F933F938F930C
:100150009F93AF93BF9380911A0190911B01A0913F
:100160001C01B0911D0130911E010196A11DB11D10
:10017000232F2D5F2D3720F02D570196A11DB11D86
:1001800020931E0180931A0190931B01A0931C01E0
:10019000B0931D018091160190911701A091180153
:1001A000B09119010196A11DB11D80931601909384
:1001B0001701A0931801B0931901BF91AF919F91BE
:1001C0008F913F912F910F900FBE0F901F90189518
:1001D0009B01AC017FB7F8948091160190911701B3
:1001E000A0911801B091190166B5A89B05C06F3F99
:1001F00019F00196A11DB11D7FBFBA2FA92F982F0D
:100200008827860F911DA11DB11D62E0880F991FDF
:10021000AA1FBB1F6A95D1F7BC012DC0FFB7F89488
:100220008091160190911701A0911801B0911901C8
:10023000E6B5A89B05C0EF3F19F00196A11DB11DC1
:10024000FFBFBA2FA92F982F88278E0F911DA11DB0
:10025000B11DE2E0880F991FAA1FBB1FEA95D1F7D5
:10026000861B970B885E9340C8F221503040404077
:10027000504068517C4F211531054105510571F6FB
:100280000895789484B5826084BD84B5816084BD0E
:1002900085B5826085BD85B5816085BDEEE6F0E0FF
:1002A000808181608083E1E8F0E01082808182605B
:1002B0008083808181608083E0E8F0E080818160DC
:1002C0008083E1EBF0E0808184608083E0EBF0E00C
:1002D000808181608083EAE7F0E0808184608083B0
:1002E000808182608083808181608083808180685A
:1002F00080831092C10008950895CF93DF930E94E8
:1003000041010E947C010E947500CAECD1E00E946C
:100310005F002097E1F30E94CA01F9CF08951F9270
:100320000F920FB60F9211242F933F934F938F93F9
:100330009F93EF93FF938091C00082FD1DC0409179
:10034000C60020915F01309160012F5F3F4F2F73F6
:10035000307080916101909162012817390771F026
:10036000E0915F01F0916001E15EFE4F40833093C8
:10037000600120935F0102C08091C600FF91EF9160
:100380009F918F914F913F912F910F900FBE0F90A2
:100390001F901895E091B301F091B401E05CFF4F1C
:1003A0008191919120813181805C9F4F821B930BC1
:1003B00060E470E00E94EE04892B11F00E948E012F
:1003C00008951F920F920FB60F9211242F933F930F
:1003D0008F939F93EF93FF932091A3013091A401FA
:1003E0008091A5019091A6012817390731F48091D9
:1003F000C1008F7D8093C10014C0E091A501F091F0
:10040000A601ED59FE4F20818091A5019091A60192
:1004100001968F7390709093A6018093A50120930D
:10042000C600FF91EF919F918F913F912F910F9077
:100430000FBE0F901F901895AF92BF92DF92EF9270
:10044000FF920F931F93CF93DF93EC017A018B01FF
:10045000DD24403081EE580780E0680780E07807AF
:1004600011F0DD24D39491E0A92EB12CEC89FD8903
:10047000DD2069F0C50108A002C0880F991F0A9409
:10048000E2F7808360E079E08DE390E005C01082C0
:1004900060E874E88EE190E0A80197010E940105F0
:1004A000215030404040504056954795379527950C
:1004B00080E12030380720F0DD2011F0DD24D6CF98
:1004C000E889F9893083EA89FB89208319A2EE89BA
:1004D000FF89408121E030E0C9010C8C02C0880F07
:1004E000991F0A94E2F7482B4083EE89FF894081E7
:1004F000C9010D8C02C0880F991F0A94E2F7482B9E
:100500004083EE89FF894081C9010E8C02C0880FAB
:10051000991F0A94E2F7482B4083EE89FF89808176
:100520000F8C02C0220F331F0A94E2F72095282374
:100530002083DF91CF911F910F91FF90EF90DF907B
:10054000BF90AF900895DC011C96ED91FC911D9732
:10055000E05CFF4F8191919120813181805C9F4FC0
:10056000821B930B60E470E00E94EE040895DC01AE
:100570001C96ED91FC911D97E05CFF4F208131812D
:10058000E054F040DF01AE5BBF4F8D919C9111971D
:100590002817390719F42FEF3FEF07C08D919C9171
:1005A000E80FF91F8081282F30E0C9010895DC0190
:1005B0001C96ED91FC911D97E05CFF4F20813181ED
:1005C000E054F040DF01AE5BBF4F8D919C911197DD
:1005D0002817390719F42FEF3FEF10C08D919C9128
:1005E0001197E80FF91F20818D919C911197019629
:1005F0008F73907011969C938E9330E0C90108958B
:10060000DC0191968C919197882339F05496ED9165
:10061000FC915597808186FFF9CF91961C920895A1
:10062000CF93DF93EC01EE85FF85E05CFF4F2081E7
:100630003181E054F0402F5F3F4F2F733070DF0166
:10064000AE5BBF4F8D919C91119728173907D1F35D
:10065000E05CFF4F80819181E054F040E80FF91F8A
:100660006083EE85FF85E05CFF4F31832083EE8958
:10067000FF89208181E090E00F8C02C0880F991FD4
:100680000A94E2F7282B208381E089A3EC89FD8975
:1006900080818064808381E090E0DF91CF91089534
:1006A0001092AA011092A90188EE93E0A0E0B0E0B8
:1006B0008093AB019093AC01A093AD01B093AE01D8
:1006C00087E091E09093A8018093A7018FE191E0EA
:1006D0009093B4018093B30183E691E09093B601C7
:1006E0008093B50185EC90E09093B8018093B701B9
:1006F00084EC90E09093BA018093B90180EC90E093
:100700009093BC018093BB0181EC90E09093BE017B
:100710008093BD0182EC90E09093C0018093BF0173
:1007200086EC90E09093C2018093C10184E08093B5
:10073000C30183E08093C40187E08093C50185E015
:100740008093C60181E08093C7010895CF92DF9224
:10075000EF92FF920F931F93CF93DF937C016B0176
:100760008A01C0E0D0E00FC0D6016D916D01D701C4
:10077000ED91FC910190F081E02DC7010995C80F22
:10078000D91F015010400115110571F7CE01DF91FD
:10079000CF911F910F91FF90EF90DF90CF90089530
:1007A000EF92FF920F931F938C01DC01ED91FC916E
:1007B0000190F081E02D6DE009957C01D801ED916B
:1007C000FC910190F081E02DC8016AE009959C013F
:1007D0002E0D3F1DC9011F910F91FF90EF900895BD
:1007E000CF93DF93EC016115710519F420E030E03F
:1007F0000FC0DB010D900020E9F71197A61BB70B86
:10080000E881F9810280F381E02DAD0109959C0119
:10081000C901DF91CF9108954F925F927F928F929D
:100820009F92AF92BF92CF92DF92EF92FF920F937F
:100830001F93DF93CF93CDB7DEB7A1970FB6F89490
:10084000DEBF0FBECDBF2C01742ECB01223008F4C9
:100850002AE019A231E2C32ED12CCC0EDD1E822E4D
:100860009924AA24BB24672D752FA50194010E9409
:10087000010579018A01C801B701A50194010E940F
:10088000CF04472D461B0894C108D1084A3014F400
:10089000405D01C0495CF6014083E114F1040105AB
:1008A000110521F07E2C5F2DC801DDCFC201B601FC
:1008B0000E94F003A1960FB6F894DEBF0FBECDBF25
:1008C000CF91DF911F910F91FF90EF90DF90CF902C
:1008D000BF90AF909F908F907F905F904F900895C2
:1008E000CF92DF92EF92FF920F931F93CF93DF93FC
:1008F000EC016A017B012115310541F4E881F981A0
:100900000190F081E02D642F09951FC02A30310538
:10091000D1F477FF17C0E881F9810190F081E02DD3
:100920006DE209958C0144275527BA014C195D09E0
:100930006E097F09CE012AE00E940C049801280F5D
:10094000391F04C02AE00E940C049C01C901DF91F8
:10095000CF911F910F91FF90EF90DF90CF9008956E
:10096000CF92DF92EF92FF920F931F936C017B0166
:100970009A010027F7FC0095102FB801A7010E94EB
:1009800070048C01C6010E94D003080F191FC80112
:100990001F910F91FF90EF90DF90CF900895629F8D
:1009A000D001739FF001829FE00DF11D649FE00D67
:1009B000F11D929FF00D839FF00D749FF00D659FC8
:1009C000F00D9927729FB00DE11DF91F639FB00DC7
:1009D000E11DF91FBD01CF011124089597FB092ED8
:1009E00007260AD077FD04D02ED006D000201AF4B6
:1009F000709561957F4F0895F6F7909581959F4F7B
:100A00000895A1E21A2EAA1BBB1BFD010DC0AA1F4F
:100A1000BB1FEE1FFF1FA217B307E407F50720F067
:100A2000A21BB30BE40BF50B661F771F881F991FE2
:100A30001A9469F760957095809590959B01AC012B
:100A4000BD01CF010895AA1BBB1B51E107C0AA1F1E
:100A5000BB1FA617B70710F0A61BB70B881F991F5F
:100A60005A95A9F780959095BC01CD010895EE0F98
:0E0A7000FF1F0590F491E02D0994F894FFCF3C
:100A7E000E0001000000001003A603A302D702B768
:040A8E00020003005F
:00000001FF
